:020000041000EA
:1000000000B5324B212058609868022188439860DF
:10001000D860186158612E4B002199600221596106
:100020000121F02299502B49196001219960352056
:1000300000F044F80222904214D00621196600F024
:1000400034F8196E01211966002018661A6600F04E
:100050002CF8196E196E196E052000F02FF8012189
:100060000842F9D1002199601B49196000215960AB
:100070001A491B48016001219960EB211966A021F2
:10008000196600F012F800219960164914480160C1
:100090000121996001BC002800D000471248134993
:1000A000086003C880F30888084703B5996A0420EC
:1000B0000142FBD001200142F8D103BD02B5186610
:1000C0001866FFF7F2FF186E186E02BD00000240BE
:1000D000000000180000070000035F00212200005C
:1000E000F4000018222000A00001001008ED00E03C
:1000F00000000000000000000000000074B24E7A12
:1001000000200420F7010010C3010010C5010010F9
:10011000C1010010C1010010C1010010C101001097
:10012000C1010010C1010010C1010010C701001081
:10013000C1010010C1010010C9010010CB01001065
:10014000CD010010CD010010CD010010CD01001037
:10015000CD010010CD010010CD010010CD01001027
:10016000CD010010CD010010CD010010CD01001017
:10017000CD010010CD010010CD010010CD01001007
:10018000CD010010CD010010CD010010CD010010F7
:10019000CD010010CD010010CD010010CD010010E7
:1001A000CD010010CD010010CD010010CD010010D7
:1001B000CD010010CD010010CD010010CD010010C7
:1001C00000BE00BE00BE00BE00BE00BEEFF3058054
:1001D000103800BEF2EB8871047A0410247A0410FF
:1001E0003402001090A31AE700201F49086006C8D7
:1001F00081F3088810471D48006800282FD10DA4FE
:100200000ECC002902D000F012F8F9E71849194A7B
:10021000002000E001C19142FCD1174988471749ED
:1002200088471749884700BEFDE701C901C29A42C5
:10023000FBD37047247A0410C0000020582100200E
:10024000BC9A04100000042000000420BC9A041092
:10025000001004200010042000000000704709482E
:1002600022F0EAFB0047000008ED00E0000000D0AB
:1002700058210020409D0120110F02108D0A00100E
:10028000391002105756000006005250ABB36053AD
:1002900028B8021006005250861C030238B802101B
:1002A000060052505422A29DB4A5021005005250DF
:1002B000DE65F468BC9A0410F8B5C04606480749E4
:1002C000091A8B10C90FC91810B5491003D0044B77
:1002D000002B00D0984710BD582100205821002045
:1002E00000000000054B10B5002B03D00449054861
:1002F00000E000BFFFF7E2FF10BDC04600000000B5
:10030000C07800201882021010B51400044B0A00B7
:100310000100180023F010FD23680133236010BD95
:100320007882021010B526F007FB25F039FF02286D
:100330000AD003280CD001280BD0FF2025F026FF7F
:1003400025F02EFF0228F4D1022025F01FFFECE754
:10035000032025F01BFFE8E7F0B5C646012400B5F1
:10036000D02782B084409046F0236A460D003F06B5
:1003700001AE138001200021BC611FF097FD320007
:1003800069460223114827F007FF7C6173786A46AB
:100390002B70F123012013800021BC611FF086FD2A
:1003A000320069460223094827F0F6FE43467C6185
:1003B000707818702A78143851424A4143425841A3
:1003C000104002B080BCB846F0BDC04600C003403B
:1003D00030B5050013000F4A83B01478E0B2013441
:1003E000E4B214700C4A0D4C019200940A002900EA
:1003F0000AF028F800280AD02021094A2018936919
:100400001942FCD1237801341360A042F7D103B024
:1004100030BDC046289D0120071000006C60002000
:100420000040034030B5050013000F4A83B0147834
:10043000E0B20134E4B214700C4A0D4C0192009405
:100440000A00290009F0FEFF00280AD02021094AED
:10045000201893691942FCD1237801341360A0421B
:10046000F7D103B030BDC046299D01200710000020
:100470006C60002000800340F0B5334B87B01B78E0
:10048000002B5DD06E236A46D024802504AEFF3356
:1004900033802D3BFF3B93732406203BAD010D20A1
:1004A000D3731EF0B5FE656201210C2065611EF05C
:1004B00085FE01210E201EF081FE01210F201EF07D
:1004C0007DFE2249224826F045F80E236B44190090
:1004D0000122A5611E4827F04FFE022231001C4870
:1004E00027F04AFE0A20002165611FF0DFFC01238E
:1004F00005AF5B423B8010336B4419000122A561BC
:10050000134827F039FE02233A000021104827F053
:10051000F3FD104965610E4826F01CF83B783178F0
:100520007C7872788B4207D00B4D0C480195009473
:1005300023F002FC07B0F0BDA242F5D1084DF4E76C
:10054000084823F0B3FAF5E7229D012050973100C7
:1005500000000440404B4C0090820210CC820210FC
:10056000848202109C820210F0B5DE464E4645465B
:100570005746E0B52E4CA54402F048FA02AB984627
:1005800042462C4B81461B785070137000284DDD7D
:1005900001239B4680239B00002602249A4607E005
:1005A000380029004044013623F09EF9B1453BD084
:1005B000300002F031FA0500300002F03DFA424608
:1005C0002B79A71C13555B464444584060702D6836
:1005D000280027F0EDFB421CBC185445E0D9BBB203
:1005E0001549164C0A78D0B20132D2B20A70144AB8
:1005F000012101920094424609F024FF00280AD00C
:100600002021104A201893691942FCD12378013423
:1006100013608442F7D183239B009D44F0BCBB460A
:10062000B246A946A046F0BDA3B2D9E70223D7E758
:10063000F4FDFFFF309D0120289D01206C6000200B
:100640000710000000400340F0B557464E464546AF
:10065000DE46E0B59FB015AD2A00B04BB04E13CBCF
:1006600013C213CB13C213CB13C26A46AD4B1D2169
:10067000938533780BAAD8B20133DBB23370AA4B1F
:100680000193AA4B9A460093022309F0DBFE00284F
:100690000BD054462021A64A504493691942FCD1FC
:1006A0002378013413608442F7D114201FF06CFCCE
:1006B0006A46A04B1D21138633780CAAD8B20133A9
:1006C000DBB23370984B019353460093022309F039
:1006D000B9FE00280BD054462021954A5044936916
:1006E0001942FCD12378013413608442F7D1574674
:1006F00032201FF049FC904B904C0793904B08938D
:10070000904B0693904B0593904B09938B4820F0A8
:1007100059F92968894820F08DF8022108201EF037
:100720004DFD022109201EF049FD2B79002B00D040
:10073000D4E0C022236B12021340854A13600023C9
:10074000012208217D4820F04FF901217B4820F04B
:1007500089F9A369DB0607D41022A3691A42FCD1E8
:100760002368A3691A42F8D0A968079823F0E4FA2D
:10077000089A4B211378D8B20133DBB213706A4B5D
:10078000002201930097002309F05CFE00280AD0A4
:10079000390020223818A3691A42FCD10B780131A4
:1007A00023608142F7D11FF03FFD0023694A801882
:1007B000594102900391002904DA0122664B52420A
:1007C0000292039300220021069809F06DFE039B1C
:1007D000624E98460DAB99469A4600239B461023DD
:1007E00041469C46736A99424ED8B06A029A90423A
:1007F00001D2994248D05946059823F09DFA5B46AC
:10080000002B00D179E0564823F096FA5B46102B76
:1008100000DD7CE00DAA9046524E984433004646D7
:10082000A8464D46B9461F0029783800013523F007
:1008300083FAAE42F8D15B4645464F46102B68DC42
:100840005D2023F0E9F84849099823F075FA0C3542
:100850001EABAB4200D059E7384820F0B3F8E12195
:10086000364849021FF0E6FF022108201EF0A6FCD0
:10087000092002211EF0A2FC00201FB0F0BCBB46E4
:10088000B246A946A046F0BD6246A3691A42A9D164
:1008900088461021294A93691942FCD15B461168A8
:1008A000C9B21F2B01DC5346197001239C460698E0
:1008B000E34427F081FC01239C46069A2B4BE2443B
:1008C000D358002B00D18AE75946059823F034FA13
:1008D0002749099823F030FA0120CEE702210A20A7
:1008E0001EF06CFC02210B201EF068FCC023226B62
:1008F0001B029343164A136021E71B49099823F012
:100900001BFA0C351EABAB4200D0FFE6A4E7102368
:1009100080E7184823F010FA92E7C04640820210A0
:10092000289D012002DAFFFF071000006C60002004
:100930000040034003B8FFFF008302100080034023
:10094000299D0120F0800020148302107091021074
:100950003090034020A10700FFFFFF7F00400540CB
:100960001C83021020830210288302101410000040
:100970003083021050880210F0B50500081E17D011
:1009800000220C4C0C490D4E0DE0238801329BB225
:10099000F35C92B22B702388013501339B059B0DCC
:1009A0002380904204D027880B889F42EDD110000D
:1009B000F0BDC0460E9D0120109D0120F07C00205E
:1009C000024B034A1B889BB213807047109D012085
:1009D0000E9D012010B5040027F0EAF9031E0BD08C
:1009E0002021064A2000E41893691942FCD10378BB
:1009F000013013608442F7D110BDC046008003402F
:100A0000194BF0B59C460123CE4647460726804643
:100A1000994680B5154A164D164C11782B78994297
:100A20001CD013785B00195D1378C9B25B00E31822
:100A30005F781378F8B2013333401370022F04D07B
:100A40000128EAD14346197009E00429E5D163463B
:100A50004946197011782B789942E2D10020C0BC28
:100A6000B946B046F0BDC0463C9D01201C9D01200A
:100A70001B9D0120682B0020024B034A1B78DBB230
:100A8000137070471B9D01201C9D0120F0B5DE46B0
:100A9000454657464E46E0B5394C8025A544D024FE
:100AA0006D0524061C201EF0B3FB65620A20A561BB
:100AB0001FF06AFAE1216561324C490220001FF003
:100AC000B9FE022100201EF079FB022101201EF058
:100AD00075FB022102201EF071FB022103201EF093
:100AE0006DFBC023226B1B029343274A082113602E
:100AF0002000002301221FF077FF012120001FF0BA
:100B0000B1FF00222149224809F0CEFC14202149DE
:100B10001EF090FC012114201EF048FC5023A3631A
:100B2000626B183B13401C4A13601FF07DFB0023CF
:100B30001A4A12184B41002B02DA0122184B52427A
:100B4000184906910978002909D1180016494C6AFC
:100B50008442FCD38D6A954201D200F04AFC6420A5
:100B60001FF012FA114B124E0A9332781B789A42F8
:100B700001D101F0B7FE0F4B0721349323E0C046AB
:100B800084FDFFFF0040034030500340C1000020BF
:100B900028400020F103002034500340C0C62D003F
:100BA000FFFFFF7F219D0120004005401B9D01208C
:100BB0001C9D0120682B00200A9B32781B789A42EA
:100BC00001D101F057FE349A337894465B00D05C33
:100BD00033785B0063445A783378D2B201330B40E8
:100BE00033700428E8D1012AE6D1FA4B1A709846EE
:100BF000F94B1A000E9306231370F849F84825F0B4
:100C0000E9FB012104201EF0D9FA012106201EF083
:100C1000D5FA012107201EF0D1FA12201EF0F8FAB1
:100C2000D02480232406DB026362052063611EF06A
:100C3000EFFA20231520636263611EF0E9FA802336
:100C40009B031320A3621EF0E3FA80231B031420EE
:100C5000A3621EF0DDFA80235B031620A3621EF060
:100C6000D7FA802386AADB039446A3621523634444
:100C70001A008BA91220FFF76FFBDA4B86AA944665
:100C800018702093172363441A0016236344190035
:100C90000520FFF761FBD44B012518701D2021931F
:100CA0001EF0B6FA80239B051820636299461EF059
:100CB000AFFA80235B0404211720A3621EF07EFAA2
:100CC0000322CA4B0D20DA64C94B1A6880239B02A9
:100CD00053401B0CC74A1B0413602A00C64B1B68F9
:100CE0009A43C64B1A601EF093FA80239B016362FD
:100CF0009B4663614B4600210A20A3611FF0D6F892
:100D00005B460120A3611FF03FF94B46032063615E
:100D10001FF03AF9BA49BB4825F05CFB01210F20CE
:100D20001EF04CFA01210E201EF048FA002386AA7C
:100D300013768CA90122B34827F01EFAB24BB34AAE
:100D40001900B048049327F017FA8EAB9A461800A2
:100D50001922002122F0C2FD19225146A94827F08C
:100D60000BFAA84825F0DAFB5B460A2063611FF006
:100D70000BF963681B0E1D40A54B1F931D7001D11D
:100D800001F06CFCA34822F091FEA34B2F939349F2
:100D90009C4825F01FFB01210C201EF00FFA0121B9
:100DA0000D201EF00BFA01210E201EF007FA012182
:100DB0000F201EF003FA9949994825F08DFC032174
:100DC00010201EF0FBF9032111201EF0F7F900227C
:100DD000012110201EF00AFA0022012111201EF02C
:100DE00005FA1B201EF014FAD024802324061B05CC
:100DF000192063621EF00CFA80239B041A206362A0
:100E00001EF006FA8023DB04A362FFF735FB43469E
:100E10001B78002B01D101F0FEFB824B1B93824813
:100E200001F09CFD814801F0BBFD219B1F991A78C0
:100E3000209B12021B78097813431B9A090412782D
:100E40000B43120613438C93002386AA93838CA82A
:100E500001F0ACFD764801F0C1FD764801F0BEFD21
:100E6000754801F0BBFD754801F0B8FD744801F00C
:100E7000B5FD744801F0B2FD734801F0AFFD734851
:100E800001F0ACFD08F0D8FE23F080F9704825F0A1
:100E9000DBF902F013FB6F4B1800169301F080FF93
:100EA000FFF762FB43461B78002B01D001F0ABFB40
:100EB000694B99460A2022F0AFFD684C200022F0D1
:100EC000F5FD674822F0F2FD200022F0EFFD209BA7
:100ED0001B78002B01D101F090FB624B624F19008F
:100EE0001993624822F028FF209B1B78002B01D029
:100EF00001F07AFB5E4D0A2022F08EFD219B390025
:100F00001B78002B00D019995A4822F015FF219B1D
:100F10001B78002B01D001F05FFB0A2022F07CFD42
:100F20001F9B1B78002B01D101F051FB524B2F99D5
:100F30003993524822F000FF1B9B1B78002B01D1F4
:100F400001F037FB4E4B19003A934E4B1800639358
:100F500022F0F2FE43461B784B49002B00D0494655
:100F60004A4822F0E9FE069B49491B78002B00D035
:100F70004849494822F0E0FE01F048FD474B010096
:100F8000180022F0D9FE200022F090FD444B1800FA
:100F90002E9322F0D1FE1FF047F9002901D101F074
:100FA00002FBFA220023920021F0DEFD3D4B3E4A77
:100FB000689318603D4B289210933D4B3D4A09932E
:100FC0003D4B13920F933D4B3D4A0D933D4B299260
:100FD0000B9379E0379D0120309D0120404B4C0060
:100FE00000C00340359D0120369D012000000540D2
:100FF00048000540481005403C0005403C100540B5
:1010000040420F000000044030BB02109A960100DD
:10101000229D01200C84021038830210A08601005A
:10102000001B0020349D0120D10300102504001076
:1010300064520410105304109456041054550410B4
:10104000AC550410005604103056041058560410C5
:1010500025030010C083021080830210B0840210A8
:10106000D48402104C83021050830210E8840210D2
:10107000F8840210148502105C830210248502108B
:1010800068830210348502108C830210448502109C
:10109000948302106083021054850210648502104C
:1010A000DC8902108470002074700020329D0120C1
:1010B000209D0120239D0120289D01206C6000209F
:1010C0001440002040820210D44BD54A1A93D54BCD
:1010D000D54F3293D54B6093D54B1293D54B62933A
:1010E000D54B1792D54A9B462292D54A2392D54A90
:1010F0002492D54A3092D54A2592D54A1492D54A9F
:101100002692D54A1C92D54A2792D54A2A92D54A88
:101110002B92D54A1D92D54A3C92D54A1E92D54A69
:101120003D92D54A2C92D54A1892D54A6D92D54A0D
:101130006E92D54A6F92D54A7492D54A7692D54A24
:101140007792D54A7892D54A3392D54A7992D54A40
:101150007B92D54A7E92D54A7C92D54A7D92D54AD9
:101160007F92D54A8192D54A8592D54A3E92D54AF8
:101170008692D54A8792D54A8092D54A8292D54A9C
:101180008892D54A8992D54A4392D54A4492D54A03
:101190004592D54A1592D54A3592D54A4692D54AB6
:1011A0004C92D54A4D92D54A3692D54A4E92D54A5E
:1011B0004F92D54A5092D54A5692D54A5792D54A1F
:1011C0005892D54A5992D54A5A92D54A5B92D54AF5
:1011D0003F92D54A4092D54A4192D54A4292D54A49
:1011E0002D92D54A3192D54A4792D54A4892D54A4E
:1011F0004992D54A4A92D54A4B92D54A5192D54AFC
:101200005292D54A5392D54A5492D54A5592D54ACC
:101210008392D54A8492D54A5C92D54A5D92D54A4A
:101220005E92D54A5F92D54A6192D54A6492D54A78
:101230006592D54A3792D54A6692D54A6792D54A81
:101240003892D54A6992D54A6A92D54A6B92D54A64
:101250006C92D54A3B92D54A7092D54A7192D54A42
:101260007292D54A7392D54A7592D54A7A92689B02
:101270005D469846349B0C9799461EF0D5FF002991
:1012800000D1FEE1FA220023920021F06DFC83469A
:101290000A9B32781B789A4241D011954D460DE059
:1012A000049B012B00D1C9E101F096FC002800D07D
:1012B000A5E00A9B32781B789A422ED043465A46C4
:1012C0001A60099B1B78002B00D07DE10722337840
:1012D0005B00E95CCBB2069333785B00EB185C787B
:1012E000E3B20493337801331340524633700B9BBF
:1012F000243391CB91C211CB11C20429D0D901F072
:101300006BFC00287BD1049B012BD2D101F07EFB2A
:101310000A9B32781B789A42D0D1A946119D0C9B2A
:1013200003241A78109B1B789A4218D004960C9FBD
:10133000109E3B789901C91889006B18685C5A881F
:10134000043192B2C0B2691801F064FC3B780133F9
:1013500023403B703A7833789A42EAD1049E129B3C
:101360001B78002B00D0ABE1139B1B78002B00D027
:10137000D3E1179A1378002B10D000231370229B0F
:101380001978239BC9B21A78249BD2B21878199B7A
:10139000002800D0309B259822F0CEFC149B1B78AF
:1013A000002B00D0D0E108F041FC00280CD0099BB4
:1013B0001A78002A08D1434659461B68CB1A81493E
:1013C00041438B4200D92CE201F006FC002800D0FA
:1013D000ADE1189B1B78002B00D04EE7002022F0D7
:1013E000B7FC431C772B00D91AE16D9A9B00D358A8
:1013F0009F46844201D0FFF7B2FBFFF7A8FB049998
:10140000069801F0BFFB01F0E7FB002800D050E791
:10141000169801F0C5FCFFF7A7F84AE7808502108F
:10142000249D012090850210339D0120A885021083
:101430002A9D0120B4850210E0780020259D01201E
:10144000279D0120269D0120A0830210CC8502103B
:10145000179D0120199D0120169D01200A9D012044
:101460000C9D0120089D0120189D0120A8830210D9
:101470000C880210B4830210F08502103B9D0120FD
:10148000E8B80210308602105C8602108C860210CA
:10149000A4860210CC860210DC860210C8830210DB
:1014A000F886021008870210CC83021018870210F9
:1014B00028870210408702107487021028BB021090
:1014C0001F9D012088870210B4870210D483021068
:1014D000E0830210CC870210DC87021018BB0210D8
:1014E0000888021010880210208302102088021041
:1014F0002C880210548802100CBB02103E9D012063
:1015000080880210A4880210D8880210FC8802107B
:101510002C8902105C89021098750410F09C002040
:10152000808902109C890210D0890210E089021083
:10153000C8BA0210148A0210288A021050880210B9
:101540002C8A0210388A021058A20210408A021017
:10155000299D01206C8A0210888A0210908A02104C
:10156000A48A0210EC830210FC830210B48A0210D9
:10157000D08A0210E88A0210048B02100C8B021031
:101580001C8B021009030010248B02102C8B0210FC
:10159000388B0210448B0210548B0210608B0210A7
:1015A000748B02107C8B0210F49C0020948B021030
:1015B000A08B0210B4A00210B08B0210C48B0210DA
:1015C000D88B021060EA00000022099B1A7008F014
:1015D00027FB53460F9A187013780F21D8B20133A6
:1015E000DBB21370BB4B524601930D9B009301235A
:1015F00008F028FF00280DD00D9B20219C461C00E0
:10160000B54A604493691942FCD1237801341360D0
:101610008442F7D10722337801331340337048E610
:101620000400AB460C9F22F0F7F90D2C02D00A2CD7
:1016300000D01CE6729822F07FFB18E65246069B0B
:101640001A989B00D15822F077FB01F0C5FA814629
:10165000002800D0D3E601F0D9F9069B022B23D055
:10166000032B14D0012B00D023E60E9B1B78002BFC
:1016700000D1B3E0013BD8B20E9B1870FEF774FFA7
:1016800017E6FA21890021F031FA834600E60E9B25
:1016900001381B780022834201DA0133DAB20E9B53
:1016A0001A70FEF761FF04E60E9B187801F0C4F98A
:1016B000002800D095E08949329801F0A9FBF8E5AF
:1016C0000023129A212013705246222428990B7865
:1016D00013700A684B68120A1B06134386AA121875
:1016E00086A8137000191A0A027001341A0286A81B
:1016F000120E00190270242086AA12181B0E1370F5
:1017000052464B79613053715146062201F0AAFAD4
:10171000139B1B78002B00D12BE60023139A2999E9
:1017200013700A788920013201F09CFA21E601F059
:1017300005FA01F051FA002800D04AE6169801F0A7
:101740002FFBFEF711FF44E60023149A1F99137034
:10175000219B09781A78209B12021B7809041343F5
:101760001B9A0B431278269C1206134352468E9303
:101770002378504613711C9B1B78537101F016F9A6
:10178000279A2B9813889AB204922A9A128803886F
:1017900021781D98CFB21C9900780C781E9992B2CE
:1017A0008C469BB2C0B2002C01D03C998C461D994E
:1017B0000C781E99640700D53D990391614601900C
:1017C00002912C980499009722F0B6FA01F004FADD
:1017D000031E169810D101F0E3FAE4E50138C0B217
:1017E0004AE70E9B187801F05DF9002807D13B49C4
:1017F000609801F00DFB5CE501F0F4F9EBE74A4677
:101800000E9C129B20781A7001F006F9006801F016
:10181000C7FA207801F000F90168629822F08CFA8A
:1018200047E5012309990D9C0B7053461A700F9AD6
:101830000F211378D8B20133DBB21370254B524617
:1018400001930094012308F0FDFD002800D1BBE5C1
:10185000A4462021204A604493691942FCD1237890
:10186000013413608442F7D1AEE5369B4D9A1B7864
:101870004E98D45C0C9F210022F05EFA524603235E
:10188000547013700F9A1D211378AB46D8B20133F0
:10189000DBB213700F4B524601930D9B0093022352
:1018A00008F0D0FD00280DD00D9B20249C46190087
:1018B000094A604493691C42FCD10B7801311360E2
:1018C0008142F7D1369C0C212078013021F00EF9AD
:1018D0002170CCE40710000000400340DC0500004C
:1018E00055980C9F22F0E2F80A201DF091FCD024BC
:1018F00080232406DB000022A36201210A201DF0C0
:1019000075FC00210A201EF0D1FA6368AB465B0526
:10191000849AD90F002B00DA839A5C9822F00CFA93
:1019200009201DF075FCD024802324069B00A362AF
:101930000022012109201DF059FC0A2000211EF07F
:10194000B5FA6168AB4C8905C90F5D9822F0F4F9CE
:1019500020001FF037F8E121200049021EF06AFF45
:10196000022108201DF02AFC022109201DF026FC7E
:10197000C022236B120213409F4A082113602000EB
:10198000002301221FF030F8012120001FF06AF827
:10199000A369DB0607D41022A3691A42FCD123688D
:1019A000A3691A42F8D05246944B5E98136022F015
:1019B000C3F9514620228F4CA3691A42FCD10B78FF
:1019C000013123608FAB9942F6D164201EF0DCFA1E
:1019D0005F9822F0B1F9A369DB0601D500F0EEFDB6
:1019E00000239946FF3310259846824CA3691D4277
:1019F000FCD1434621681598194022F09DF9012336
:101A00009C46A369E1441D4202D14B46202BEDD1F7
:101A10004946619822F090F929E477980C9F22F0CA
:101A200045F81F9BAB461B783999002B00D02F99A6
:101A3000D0231B065A687898D201D20F22F07CF985
:101A4000209B33991B78002B00D01999799822F0AC
:101A500073F9219B33991B78002B00D019997B983F
:101A600022F06AF91B9B33991B78002B00D03A991E
:101A7000639822F061F901F0AFF87E99002801D057
:101A800000F0A0FD7C9822F057F9279B7D981988DB
:101A9000269B89B21A78D2B222F04EF9D0200006E5
:101AA00041684268436844680120E40A9B0A520A7C
:101AB000090A034002400140204000907F9822F034
:101AC0003BF9819822F038F9FFF7D1FB46980C9F3B
:101AD00021F0ECFF09201DF09BFBD024802324067D
:101AE0009B000022A362012109201DF07FFB0A2038
:101AF00000211EF0DBF96368AB469B05DC0F1EF08E
:101B000093FB00233E4A80185941002902DA012044
:101B10003C494042D0231B068046002200259C46BB
:101B20003948436A994212D8806A404501D29942A5
:101B30000DD0230029004C9822F0FEF80221092044
:101B40001DF03CFB2E9822F0F7F8FFF790FB634660
:101B500001205B6801325B0A0340E41A601E844185
:101B60002D191C00DCE73E9B859A1B788698D45C77
:101B70000C9F210022F0E0F85246022354701370AB
:101B80000F9A1D211378AB46D8B20133DBB2137024
:101B90001E4B524601930D9B0093022308F052FC0A
:101BA00000280DD00D9B20249C461900184A604443
:101BB00093691C42FCD10B78013113608842F7D144
:101BC00007233E990A78013213400B70FFF74FFB51
:101BD00087980C9F21F06AFFFEF736FD1B9BAB46F2
:101BE00082991870002800D08099889822F0A4F873
:101BF000FFF73DFB008003403090034055AA0FF0F3
:101C000080841E00FFFFFF7F00400540071000009A
:101C100000400340D24C4B980C9F21F047FF20001E
:101C20001EF0D0FEE121200049021EF003FE022139
:101C300008201DF0C3FA022109201DF0BFFAC022BE
:101C4000236B12021340C74A0821136020000023AF
:101C500001221EF0C9FE012120001EF003FFA3692E
:101C6000AB46DB0607D41022A3691A42FCD12368D5
:101C7000A3691A42F8D0519A4B211378D8B2013394
:101C8000DBB21370B84B002201930D9B009300232D
:101C900008F0D8FB00280DD00D9B20249C4619008D
:101CA000AF4A604493691C42FCD10B780131136048
:101CB0008142F7D1529822F03FF800251EF0B4FA85
:101CC000AA4C24184D41002D02DA0124A84D64428B
:101CD00000239946A74B06940795049598464D46D0
:101CE0001022434604985B6A984200D9D3E34146E8
:101CF000069C896AA14202D2984200D1CBE3A94650
:101D00004946549822F018F8FFF7B1FA944C3F98DE
:101D10000C9F21F0CBFE20001EF054FEE12120009C
:101D200049021EF087FD022108201DF047FA02211A
:101D300009201DF043FAC022236B12021340894A86
:101D4000082113602000002301221EF04DFE012116
:101D500020001EF087FEA369AB46DB0607D41022E5
:101D6000A3691A42FCD12368A3691A42F8D01EF075
:101D70005BFA0025804C24184D41002D02DA012425
:101D80007B4D6442002399467A4B04959846330074
:101D90004E4699461022434604985B6A98420ED8F4
:101DA0004146896AA14201D2984208D04B46B146C9
:101DB0001E004946409821F0BFFFFFF758FA684BD4
:101DC0009B691A42E7D11022654B99690A42FCD1FE
:101DD00019681598C9B2013621F0AEFF330701D159
:101DE00000F0AAFD80235B009E42D3D14B46B14652
:101DF0001E00604B04995A6A9142DAD89B6AD8E770
:101E000089980C9F21F052FE10229446439BAB46CA
:101E10001D0063449846534B514C994650481EF060
:101E2000D1FD29684E481EF005FD022108201DF055
:101E3000C5F9022109201DF0C1F9C022236B12024D
:101E400013404A46082113604548002301221EF032
:101E5000CBFD012142481EF005FEA369DB0607D435
:101E60001022A3691A42FCD12368A3691A42F8D050
:101E7000449B20221900181DA3691A42FCD10B783B
:101E8000013123608142F7D1C8201EF07DF8296816
:101E9000459821F051FFA369DB0628D40023994619
:101EA000FF33102598462E4CA3691D42FCD14346B2
:101EB00021681598194021F03FFF01239C46A36932
:101EC000E1441D4202D14B46402BEDD149463598A5
:101ED00021F032FF22481EF075FDE1212048490221
:101EE0001EF0A8FC022108201DF068F926E600215A
:101EF0003598043521F020FFA8458FD1EAE76B988B
:101F00000C9F21F0D3FD1D48AB4621F021FF431C5F
:101F100000D1FFE0C4B2002C01D100F0FEFC01258D
:101F20000BE01F2286AB9B185855EBB29C4200D8A1
:101F3000EAE20135402D00D1E6E2104821F008FF29
:101F4000431CEED1231C3F2C00D93F2300225146D5
:101F5000DBB27A98CA5421F0EFFEFFF788F9C04649
:101F600000800340309003400710000040420F0003
:101F7000FFFFFF7F00400540C0C62D0080841E008B
:101F80009E4C57980C9F21F091FD589821F08EFDA2
:101F900020001EF017FDE121200049021EF04AFC3E
:101FA000022108201DF00AF9022109201DF006F97E
:101FB000C022236B12021340914A082113602000B3
:101FC000002301221EF010FD012120001EF04AFD19
:101FD000A369AB46DB0607D41022A3691A42FCD1E1
:101FE0002368A3691A42F8D0599B00255C681B68D6
:101FF0000493059410239846804C4246A3691A42E4
:1020000022D0002021F0A4FE431C2BD01B282DD170
:102010000135012D3FD0022D4DD1049A059B1100B1
:102020001943EAD07749059B4A6A9342E5D8896A01
:102030000498814218D29B1A5A42534142465B424D
:102040001D40A3691A42DCD14246A3691A42FBD162
:10205000FF202368184021F093FD002021F078FE36
:10206000431CD3D1002DD8D10025C6E7FF215A9BB0
:10207000014002229B5E8B4206D02022A3691A42B5
:10208000FCD100252160B8E72023A2691342FCD1CE
:102090000D232360F1E71EF0C7F800235A4A1218F7
:1020A0004B4104920593002BB7DA0122574B524261
:1020B00004920593B6E75B9821F03EFEFFF7D7F850
:1020C00067980C9F21F0F2FC5148AB4621F040FE8E
:1020D000431C1FD0C4B2002C01D100F021FC01250B
:1020E0000BE01F2286AB9B185855EBB29C4200D8E0
:1020F000F2E10135402D00D1EEE1454821F028FE06
:10210000431CEED1231C3F2C00D93F230022514613
:10211000DBB2CA54389821F00FFEFFF7A8F86F9889
:102120000C9F21F0C3FCFA20AB46D0248025C000D0
:102130001DF02AFF749824066D0521F0B7FC1C20C1
:102140001DF066F865626420A5611DF01DFF76989C
:10215000656121F0F1FDFFF78AF850980C9F21F09E
:10216000A5FC0023524613702A4BAB469846202507
:10217000294C0F9A1E211378D8B20133DBB21370A9
:10218000434601930D9B52460093012308F05AF9F0
:10219000011E0BD00D9B9C461A006144A3691D4291
:1021A000FCD11378013223608A42F7D1534652465C
:1021B0001B780133DBB21370072BDAD9C2E46498C1
:1021C0000C9F21F073FC00236599524637988E933B
:1021D00001F02EFA8E996698AB4621F0ADFDFFF71F
:1021E00046F856980C9F21F061FCFEF745F92E98B1
:1021F000AB4621F0A1FDFFF73AF8C046008003404E
:10220000309003400040054020A10700FFFFFF7F02
:1022100080841E00071000000040034041980C9F7E
:1022200021F044FC429B10249B4606950C97119686
:10223000CC4D28001EF0C6FB5B46280019681EF036
:10224000F9FA022108201CF0B9FF022109201CF034
:10225000B5FFC0222B6B12021340C34A0821136042
:102260002800002301221EF0BFFB012128001EF0E0
:10227000F9FBAB691C4206D1AB691C42FCD12B684F
:10228000AB691C42F8D00A201DF07EFEB54A936966
:102290001C4206D193691C42FCD1136893691C420D
:1022A000F8D01DF0C1FF0023B04A12184B41049230
:1022B0000593002B04DA0122AD4B524204920593A0
:1022C000049D059E00239946A64B31009C462A009A
:1022D00033004E46A748456AA9425AD8876A9742B2
:1022E00001D2A94255D0B146B046182E01DD1823BF
:1022F00098465B464A4619682D9821F01DFD4B46CD
:10230000002B73D0434656460027D0461D00317837
:102310001598013721F010FD0136AF42F7DB4B462F
:102320004546182B5BDC319821F006FD514600260E
:102330000022494403E0013501328D420BD02B7855
:10234000180020385E28F6D9F13B58424341013548
:10235000F6188D42F3D164204946504320F09EFB8D
:102360000100489821F0E8FC002E03D03100499884
:1023700021F0E2FC4A9821F099FB04239C467E4B15
:10238000E3449B4500D053E7069B0C9F9B46119E60
:10239000A0E56546AD692C429DD110278846714D58
:1023A0000136A9690F42FCD12D684146A8461F2578
:1023B00086AF7F194546BD55402E8CD16D4DB14637
:1023C000686A04920593814200D8AB6A5B4640225A
:1023D00019682D9821F0B0FC1823984692E7479889
:1023E00021F0AAFC319821F0A7FC9FE7319821F059
:1023F000A3FCBFE76E980C9F21F058FB0F9A0D9C31
:1024000013781A21D8B20133DBB213705B4B002270
:10241000019300940023AB4608F014F8002801D182
:10242000FEF725FFA44621002024554A6044936905
:102430001C42FCD10B78013113608842F7D1FEF7C2
:1024400016FF4F980C9F21F077FC0723524613800C
:102450000F9A0D9C13781D21D8B20133DBB2137093
:10246000464B5246019300940223AB4607F0EAFF25
:10247000002801D1FEF7FBFEA44621002024404A9B
:10248000604493691C42FCD10B780131136088428F
:10249000F7D1FEF7ECFE334B9B691A4200D020E4E3
:1024A0001022304B99690A42FCD11B68D9B2203BFB
:1024B000DBB25E2B00D93BE2080021F0ADFA01351A
:1024C000802D00D00CE42B4B04995A6AA946914206
:1024D00000D915E49B6A13E4231C3F2C00D93F2349
:1024E00000225146DBB2CA54504601F0DDF8011E0D
:1024F00005D15146699821F01FFCFEF7B8FE6A9895
:1025000021F01AFCFEF7B3FE231C3F2C00D93F2319
:1025100000225146DBB2CA54FF230024002598460E
:10252000184821F015FC431C10D043461840A04029
:1025300008340543202CF3D180231B029D420AD985
:1025400029006C9821F0F8FBFEF791FE759821F0B8
:10255000F3FBFEF78CFE3B9B98461C00A844002D25
:1025600017D1CAE1008003403090034020A107004A
:10257000FFFFFF7F004005400CBB0210071000006A
:102580000040034080841E0020700134444500D187
:10259000B3E16B4821F0DCFB431CF5D1739821F0CB
:1025A000CBFBFEF764FEFA21890020F09FFAFEF7CC
:1025B000FDFC644B64493A93FEF7C7FC002399463F
:1025C000FFF726FA00F00EFB0100FFF75BFA5F4B06
:1025D00019003993FEF7ADFC86AB2800DA7D997DB2
:1025E00021F0AAFBFEF799FC594D86AB28005A7DD5
:1025F000197D21F0A1FBFEF77EFC564F564B3900AA
:102600001993FEF76EFC554B55491800994600F09A
:10261000FFFBFEF74FFC534821F048FAFA208000F8
:102620001DF0B2FCFEF710F84F4B002218704F4916
:102630004F481B9307F038FF15204E491CF0FAFE57
:10264000012115201CF0B2FE50224B4B9A635B6BAC
:10265000183A1340494A1360FEF7E1FB80274848C7
:1026600021F024FA7F010C201CF0D2FD8025676246
:102670000E20A7611CF0CCFD4B46ED0100216562E8
:102680000A20A561A3611DF011FC5B460120A36136
:102690001DF07AFC4B46032063611DF075FC1E2380
:1026A000A7611A00033AFDD21A006561033AFDD210
:1026B000A5611A00A761033AFDD21A006561033AC9
:1026C000FDD2A5611A00A761033AFDD21A00656127
:1026D000033AFDD2A5611A00A761033AFDD21A00A0
:1026E0006561033AFDD2A5611A00A761033AFDD2E4
:1026F0001A006561033AFDD2A5611A00A761033A89
:10270000FDD21A006561033AFDD2A5611A00A761E6
:10271000033AFDD21A006561033AFDD2A5611A00A1
:10272000A761033AFDD21A006561033AFDD215494B
:10273000049A89460120B346A561914486E0C046CB
:1027400080841E0068830210748302105C83021070
:10275000F8840210508302104C8302108083021010
:10276000B80B000094840210349D012089030020DE
:102770004850002021040020008003403490034092
:10278000348402109A960100A7611E00033EFDD218
:102790001E006561033EFDD28E11A561304200D05E
:1027A00066E0A7611E00033EFDD21E006561033E88
:1027B000FDD24E11A561304200D057E0A7611E0046
:1027C000033EFDD21E006561033EFDD20E11A561E0
:1027D000304200D048E0A7611E00033EFDD21E003B
:1027E0006561033EFDD2CE10A56130423AD1A761AA
:1027F0001E00033EFDD21E006561033EFDD28E1019
:10280000A56130422CD1A7611E00033EFDD21E00FF
:102810006561033EFDD24E10A56130421ED1A76115
:102820001E00033EFDD21E006561033EFDD2A56180
:10283000084211D1A76119000339FDD21900656161
:102840000339FDD20132A5614A451CD01178CE1161
:1028500000D199E7676198E76761ECE76761DFE7B7
:102860006761D1E76761C3E76761B5E76761A6E7BD
:10287000676197E7334B9846002342461370324B0B
:102880000E93FEF7BAF9D024802580225E46C82335
:102890001E2124066D01D2010800A5610338FDD276
:1028A000080062610338FDD2013BA261002BF3D125
:1028B00080239B0163610A201DF066FB61681F9AFB
:1028C000C901C90FCBB21370002B07D01F4B1A00E0
:1028D0002F931F4821F030FAFEF759FA1B4B1D4A7F
:1028E0002F93F6E7174B98460023424613701A4B76
:1028F0003493154B0E93FEF780F9379800F0E6FEFF
:102900003B992A00504600F041FE011E0BD12900E0
:10291000709821F011FAFEF7AAFC53461C70FBE5F3
:1029200053461C70E0E5719821F006FAFEF79FFC13
:10293000539821F001FAC2E50A2021F06DF8FFF763
:1029400051FAC046379D0120309D01203883021086
:102950006C84021044830210682B00200A4B10B5CF
:1029600018600023094A00211360094A09481360CE
:10297000094A1370062220F0B1FF102200210748F7
:1029800020F0ACFF10BDC046686000201091002010
:10299000249100200C400020159D0120482A002091
:1029A000014B18607047C0461091002010B504001C
:1029B00006222100064820F097FF064B1B78002BCB
:1029C00004D006222100044820F08EFF10BDC0462E
:1029D0000C400020159D0120502A002009490300C9
:1029E000086810B50F280ADC8022DC6812019442C6
:1029F00005D8054A8400A350431C0B6010BD01207C
:102A00004042FBE72491002028910020014B1868E8
:102A10007047C04624910020002807DB044B1B6848
:102A2000834203DD034B8000C05870470020FCE761
:102A3000249100202891002000282BDB164B1B68D6
:102A4000984227DA154B8000C358002B22D09B6890
:102A5000DA071AD49A0703D5114A5078002813D000
:102A60005A0706D50E4A1178002902D1507800285D
:102A70000AD01A0703D50A4A9078002804D001200A
:102A8000DB0601D5064BD8787047054A1078002838
:102A9000E0D1F9E70020F7E72491002028910020F9
:102AA0000C400020F8B51F4D2B78002B35D10028A5
:102AB00033DB1D4B1B6898422FDA1C4B8000C45837
:102AC000002C2AD02369002B27D0E268002A26D0C8
:102AD000174F0021380020F001FFE068154E431E1B
:102AE00098414042144B3840706034601A6830009E
:102AF000B2609B88B38123699847012803D00123E2
:102B000001202B700AE0E369002B01D030009847C8
:102B100010220021300020F0E1FE0020F8BD01323B
:102B2000D6E7C046159D0120249100202891002061
:102B3000D8940020482A00200C40002070B50F4C8B
:102B40002378002B08D00E4D2B685B69002B03D037
:102B500028009847012800D070BD2378002BFBD0B7
:102B60002B68DB69002B01D0280098470023102236
:102B700000212800237020F0B1FEEDE7159D012013
:102B8000482A002070B5124D0A002C78002C09D07C
:102B9000104E33689B69002B17D001003000984716
:102BA000012801D0200070BD2B78002BFAD03368AB
:102BB000DB69002B01D03000984700231022002150
:102BC00030002B7020F08AFEECE70024EAE7C046D4
:102BD000159D0120482A0020014B18787047C046F7
:102BE000159D0120044B1B78002B03D0034B1B6861
:102BF000186870470020FCE7159D0120482A002036
:102C0000034B10B51B68002B00D0984710BDC04681
:102C10006860002070B5114C13002278002A0AD099
:102C20000F4D2A68166A002E05D00A000100280000
:102C3000B047012800D070BD2378002BFBD02B6853
:102C4000DB69002B01D028009847002310220021C7
:102C50002800237020F042FEEDE7C046159D0120BC
:102C6000482A002070B5114C13002278002A0AD09F
:102C70000F4D2A68566A002E05D00A000100280070
:102C8000B047012800D070BD2378002BFBD02B6803
:102C9000DB69002B01D02800984700231022002177
:102CA0002800237020F01AFEEDE7C046159D012094
:102CB000482A0020F0B54E46DE4657464546E0B568
:102CC0009946354B354C1B68A5440193002B33D0F6
:102CD00002AB1870484698465870002859D0002A10
:102CE00035D091444B46009300239B4680239B00A4
:102CF00017000E0002249A4609E028004946404485
:102D000020F0F2FD009B013704369F421DD0424661
:102D10003B78A51C13555B46444463703368180028
:102D2000994625F045F8421CAC185445E5D9AAB29D
:102D300041460120019B984783239B009D44F0BCA2
:102D4000BB46B246A946A046F0BDA2B2F0E70023BA
:102D50000E00002702249B4609E028000137514657
:102D60004044FFB220F0C0FD0436B945EDD05A46CC
:102D700043461A553368A51C1800444462709A46AD
:102D800025F016F88023421CAC189B009C42E4D925
:102D9000CDE70222CCE7C04668600020F4FDFFFFCB
:102DA000F0B5194B05001E6891B0002E1FD06C467F
:102DB000164A13791178237053796370002902D071
:102DC00002210B4363705178002902D004210B4388
:102DD0006370D278002A02D0082213436370002364
:102DE0002800638024F0E4FF471D402F01D911B073
:102DF000F0BD2900421C01A820F076FD210003202F
:102E0000BAB2B047F3E7C046686000200C4000202B
:102E1000F0B50C4B04001E6891B0002E06D06F4632
:102E2000398024F0C5FFC51C402D01D911B0F0BD7B
:102E30002100421CB81C20F057FD69460820AAB2A8
:102E4000B047F3E768600020F0B5DE4645465746D8
:102E50004E46E0B51B4B1C4C1B6888469B46A54460
:102E6000002B21D06B46E9461970002927D080231A
:102E70009B000600002401259A4608E00134390031
:102E80004844E4B220F030FD0436A04515D0376840
:102E9000380024F08DFF421C2800AD185545EDD9AF
:102EA00082B249460420D84781239B009D44F0BC50
:102EB000BB46B246A946A046F0BDAAB2F1E7012240
:102EC000EFE7C04668600020FCFDFFFF044B10B533
:102ED0001B68002B03D0002200210E20984710BD54
:102EE0006860002030B50124D02584402D0683B0D1
:102EF0000A200021AC611CF0D9FF282000216C6160
:102F00001CF0D4FF01200021AC611CF0CFFF6A4609
:102F10003023D3716B460122D91D044825F02CF9CA
:102F200001206C611DF030F803B030BD00C00340DB
:102F300070B501243F23D026844082B00B4001AD00
:102F400036062B706A7001200021B4611CF0AEFFC0
:102F500002222900024825F00FF9746102B070BD09
:102F600000C003403F230B408021F0B5012483B013
:102F7000D027494284406D46194300233F062970FB
:102F80006B7001AE01200021BC611CF08FFF022399
:102F900032006946034825F0FFF87C61707803B081
:102FA000F0BDC04600C00340F0B5402383B06D467D
:102FB00001245B420B43D02784402B7000233F0643
:102FC0006B7001AE01200021BC611CF06FFF022379
:102FD00032006946034825F0DFF87C61707803B061
:102FE000F0BDC04600C00340F0B54F46D646464649
:102FF000C0B5914682B0002A21D03F239A46D02303
:1030000001271B0687400D000024984601AE51465B
:103010002B786A780B4033704346727001209F61B1
:1030200000211CF043FF02223100084825F0A4F8DB
:1030300043460134E4B25F610235A145E7D102B0F5
:10304000E0BCBA46B146A846F0BDC04600C0034049
:10305000F0B506000800012583B01C4A0023090CC6
:1030600000041FF081FDB5400D23D02601AC3606CB
:103070002370030C6370070000210120B5611CF070
:1030800015FF02222100124825F076F80E23756103
:1030900023703B0A637001200021B5611CF006FF1C
:1030A000022221000A4825F067F80F2375610120EC
:1030B000237067700021B5611CF0F8FE0222210028
:1030C000034825F059F8756103B0F0BD80BA8C0152
:1030D00000C0034070B5012482B0D026F4236A46B4
:1030E00084403606138001AD01200021B4611CF03C
:1030F000DDFE02232A0069460A4825F04DF8012228
:103100007461AA566B78002A07DB1BB2D80FC0186F
:1031100040104A3840B202B070BD013BFF3B1BB2C9
:10312000F4E7C04600C0034030B5012483B0D02589
:103130006A46844036232D06D37101200021AC61FC
:103140001CF0B4FE6B460122D91D034825F014F88B
:103150006C6103B030BDC04600C0034030B50124EF
:1031600083B0D0256A46844034232D06D3710120D4
:103170000021AC611CF09AFE6B460122D91D034868
:1031800024F0FAFF6C6103B030BDC04600C00340BC
:10319000F0B50124D02784403F0683B00D00012004
:1031A0000021BC6116001CF081FE6A467E23D371AB
:1031B0006B460122D91D054824F0DEFF32002900AC
:1031C000024824F0D9FF7C6103B0F0BD00C0034089
:1031D000F0B5DE46454657464E460124E0B5D026BA
:1031E0008440362385B0360603AD2B7001208A4615
:1031F000B461002190461CF059FE01222900574875
:1032000024F0BAFF3B23746101202B700021B461CC
:103210001CF04CFE01222900504824F0ADFF012093
:1032200000217461B4611CF041FE7F236A46D371B2
:103230006B460122D91D494824F09EFF4346424671
:10324000402B00D9402292B25146D026434824F068
:1032500093FF35233606746101202B700021B46181
:103260001CF024FE012229003C4824F085FF43463F
:103270007461402B31D8D026FA27360603E064204B
:1032800000211CF013FE6B4601201F810021B46158
:103290001CF00CFE02232A00304802A924F07CFF17
:1032A00074616B785B06EAD1FA20002180001CF083
:1032B000FDFD362301202B700021B4611CF0F6FDCA
:1032C00001222900254824F057FF746105B0F0BCA5
:1032D000BB46B246A946A046F0BD402399463F33BF
:1032E0009B46FA276B4601201F810021B4611CF028
:1032F000DDFD02232A00194802A924F04DFF6022B7
:1033000074616B781A42EDD15A4613404022494607
:10331000D31A4246521A1F1C91B29BB28B4200D95B
:10332000171C01200021B4611CF0C0FD6B465A46F9
:10333000D91DDA710948012224F01EFF5146BFB29F
:103340003A0049444F44054824F016FFBBB2994661
:103350007461984500D88EE7C3E7C04600C00340BB
:10336000F0B5C646012400B5D02782B0FB238440C7
:1033700015006A463F061380012001AE8846BC61F5
:1033800000211CF093FD022332006946224824F0FC
:1033900003FF7F2211007C617378002019401A42DC
:1033A00003D102B080BCB846F0BD081CA94200D9C8
:1033B000281CD0252D06C7B200210120AC611CF0CD
:1033C00075FDFF236A46694613701348012224F0F5
:1033D000D3FE42463B0000210F4824F08DFE3A23E5
:1033E0006C61012033700021AC611CF05FFD012293
:1033F0003100094824F0C0FE34236C610120337091
:103400000021AC611CF052FD01223100024824F081
:10341000B3FE38006C61C4E700C003400020704771
:103420008023FA2200B50131FF3183B009030091F6
:103430005B01694605485200019323F089FA002890
:1034400001D103B000BD05204042FAE785340010E9
:103450000131FF3108038018FA2210B584B001ACA5
:103460000293069B0190210005485200039323F02C
:103470006FFA002801D104B010BD05204042FAE7E0
:103480009134001010B503C824F066FE10BDC0468C
:1034900010B507C824F048FE10BDC04618008023B0
:1034A0005B059C4610B50131FF3162440903891860
:1034B000029A20F019FA002010BDC04670B5264EC1
:1034C000264D3100280086B00CF0C0FF011E21D02F
:1034D000234820F031FC310028000CF017FF041EB7
:1034E0002FD1310028000CF0B1FF041E2ED11D4950
:1034F00028000DF05DFB1C4928000DF059FB1B490D
:1035000028000DF055FB280019490DF051FB194812
:1035100020F0CCFA0122184B694628001A700DF0F1
:1035200007FD002808D1019A0299144820F004FCF4
:103530000024200006B070BDFF21114820F0FCFBE4
:10354000F6E721000F4820F0F7FBF2E721000E48D4
:1035500020F0F2FBEDE7C046CC5104108C70002047
:10356000408C0210A48C0210B08C0210C48C02108B
:10357000248B0210D48C02102D9D0120FC8C021093
:10358000288D0210688C0210808C021070B5124CCD
:103590000D002478160096B0002C19D00F4C0200B4
:1035A0000F4B200001A90DF069FA00280ED12A0066
:1035B000330001A920000DF0AFFA050001A9200099
:1035C0000DF066FA721B531E9A41504216B070BD40
:1035D00001204042FAE7C0462D9D01208C7000205A
:1035E00002050000F0B5104B0D001B78160097B0D7
:1035F000002B16D00D4F02000123380001A90DF059
:103600003DFA041E0AD101A933002A0038000DF04A
:103610006FFA01A9040038000DF03AFA200017B043
:10362000F0BD01246442F9E72D9D01208C7000203B
:10363000F0B5C64600B51A4B0F001B789046D0B0C7
:10364000002B2AD0174D020001A928000DF0AAFB7B
:10365000061E1DD10EAC2200280001A90DF0FEFBB4
:10366000002811DD237A2E2BF5D02378012BF2D1FF
:103670004246616810A8B8472200280001A9013617
:103680000DF0ECFB0028EDDC280001A90DF0D6FBC5
:10369000300050B080BCB846F0BD01267642F7E756
:1036A0002D9D01208C700020064B01001B7810B569
:1036B000002B03D004480DF05FF810BD01204042FC
:1036C000FBE7C0462D9D01208C700020094B0100B6
:1036D0001B7810B5002B09D007480DF069FA0300DC
:1036E00011335A1E93415B42184010BD01204042E5
:1036F000FBE7C0462D9D01208C70002000B5074BD4
:1037000001001878C3B0002806D06A4604480DF0BE
:1037100091F943425841C0B243B000BD2D9D0120F4
:103720008C700020F0B51E00184B0D001B781400A3
:1037300097B0002B27D0164F0200164B380001A976
:103740000DF09CF9002801D017B0F0BD23002A002D
:10375000380001A90DF0E0F9844210D11C9B320021
:1037600001A938000DF0D8F9040001A938000DF0C6
:103770008FF91C9B181B431E98414042E4E7380018
:1037800001A90DF085F901204042DDE72D9D0120C2
:103790008C7000200205000010B59468074B2100D2
:1037A000193918680023022905D8D0231B06596847
:1037B0000123E1400B40136010BDC046C857041000
:1037C00011680B00193B022B02D9074B1868704790
:1037D00001239068D0228B4012065362002801D04A
:1037E0005361F2E79361F0E7C857041001235B428D
:1037F0001360014B18687047C8570410024B1B88B0
:103800001360024B186870470A9D0120C8570410C6
:10381000024B1B781360024B18687047189D0120FB
:10382000C8570410014B18687047C046C8570410A9
:10383000044B1B68002B01D001225A75024B1868FB
:103840007047C046043C002038570410024B1B78D8
:103850001360024B18687047199D0120C857041067
:1038600010B5FFF733FB014B186810BDC8570410A3
:10387000F0B585B0956814001E000EF0A9FD8542D4
:1038800015D2401B092812D90D4B0E4A1B78176818
:10389000002B11D00A220C4901A820F025F80A2299
:1038A000701901A920F020F80023236001E0074BE4
:1038B0001F68380005B0F0BD013B2360F9E7C04642
:1038C000149D0120C85704103C2A002050570410B2
:1038D000F0B5CE46474680B583B0966815001C000B
:1038E0000EF076FD864231D2801B05282ED91C4B66
:1038F0001C4A98461B781768D9B2002B2ED0062296
:10390000194968461FF0F0FF6B461B7841469C46FC
:103910006B469A78581C5B7812021A438378A41974
:103920001B041343C27812061A436B4658790023CE
:103930000B70634623700123110A6270A170110C91
:10394000120EE170227160712B6001E0074B1F685D
:10395000380003B0C0BCB946B046F0BD2960F7E7F7
:103960002A9D0120C857041074700020505704107D
:10397000F0B54F464646D646C0B51D001368C0B0E8
:103980009846136A16699946976894690EF020FD67
:10399000864202D2801BA04207D2174B186840B063
:1039A000E0BCBA46B146A846F0BD6B4642465F80D1
:1039B0001A806A46012313714B4649469BB21B0A83
:1039C0000532EA4611705370F82C12D86B4622006B
:1039D000A919D81D1FF088FF534600221B1908346F
:1039E000DA7116205146A2B2FFF70AF9034B1868A4
:1039F000D5E7F824EAE7C04650570410C85704102A
:103A000030B5138911881B0485B0194300916946AC
:103A1000108B138A156A946A000403430B22142046
:103A200001930D818C72FFF7EBF8024B186805B01B
:103A300030BDC046C857041010B5138911881B0447
:103A400084B0194300916946108B138A146A0004EC
:103A500003430A22152001930C81FFF7D1F8024B92
:103A6000186804B010BDC046C857041010B519201E
:103A700000220021FFF7C4F8014B186810BDC046B2
:103A8000C8570410F0B54F464646D646C0B51D008F
:103A90001368C0B09846136A166999469768946986
:103AA0000EF096FC864202D2801BA04207D2174B32
:103AB000186840B0E0BCBA46B146A846F0BD6B46B7
:103AC00042465F801A806A46002313714B4649467E
:103AD0009BB21B0A0532EA4611705370F82C12D8BB
:103AE0006B462200A919D81D1FF0FEFE5346002286
:103AF0001B190834DA7116205146A2B2FFF780F87C
:103B0000034B1868D5E7F824EAE7C046505704107D
:103B1000C857041000B5136985B001A90B810123B2
:103B20009068126848800A80054A142002920B228D
:103B30008B72FFF765F8034B186805B000BDC046EF
:103B400001000100C857041010B5138911881B0427
:103B500084B0194300916946108B138A146A0004DB
:103B600003430922172001930C72FFF749F8024B17
:103B7000186804B010BDC046C857041000B51368DB
:103B800083B001A901220F200B70FFF739F8024B17
:103B9000186803B000BDC046C8570410F0B5C6464B
:103BA00000B5A0B096681D00176814690EF010FCEF
:103BB000864202D2801BA04205D2104B186820B06A
:103BC00080BCB846F0BD6B46E8461F707E2C12D80C
:103BD0006B462200A919581C1FF086FE434600229E
:103BE0001B1902345A7009204146A2B2FFF708F8A7
:103BF000034B1868E3E77E24EAE7C04650570410F9
:103C0000C8570410137A00B51078117C1B02090400
:103C10000343127E0B431B0283B012061B0A13439D
:103C20000A20042201A90193FEF7EAFF014B18685C
:103C300003B000BDC857041010B5136982B014005A
:103C4000926801A90A701D2002224B70FEF7D8FF6E
:103C500000232360014B186802B010BDC857041040
:103C600010B582B0694693681469180A12688870A2
:103C70001802000E0A704B70C8701B0E062210202E
:103C80000B714C71FEF7BCFF014B186802B010BD00
:103C9000C8570410F0B591B016681C0095681769F4
:103CA0000EF096FB864202D2801BA84203D20B4B39
:103CB000186811B0F0BD3F2D0ED82A00A119684632
:103CC0001FF012FE00236A466846B9B25355FFF74B
:103CD0009FF8034B1868ECE73F25EEE750570410B8
:103CE000C857041010B514681220FFF71DFA210000
:103CF0001220FFF7ADF91220FFF730FA014B1868D8
:103D000010BDC046C857041010B514680520FFF751
:103D10000BFA21000520FFF79BF90520FFF71EFA9B
:103D2000014B186810BDC046C857041010B51220CA
:103D30001400FFF7CFF9024B2060186810BDC04691
:103D4000C857041010B505201400FFF7C3F9024B43
:103D50002060186810BDC046C857041070B51668BA
:103D60001C0095680EF034FB864202D2801BA842EC
:103D700002D20B4B186870BD402D07D81220AAB292
:103D8000A119FFF725FA074B1868F4E74025122020
:103D9000AAB2A119FFF71CFA024B1868EBE7C0465C
:103DA00050570410C857041070B516681C00956869
:103DB0000EF00EFB864202D2801BA84202D20B4BB1
:103DC000186870BD402D07D80520AAB2A119FFF7C9
:103DD000FFF9074B1868F4E740250520AAB2A1199E
:103DE000FFF7F6F9024B1868EBE7C046505704108E
:103DF000C8570410F8B5976814001D0016690EF036
:103E0000E7FA874202D2C01BB04202D20B4B1868BD
:103E1000F8BD402E08D81220F2B2E919FFF7A0FA37
:103E2000074B20601868F3E740261220F2B2E91928
:103E3000FFF796FA024B20601868E9E75057041024
:103E4000C8570410F8B51568122096681469FFF772
:103E50006BF90222072D03D802232D011D436AB2FC
:103E600012211220D2B2FFF763F8002E00D106E132
:103E700035093607002330002900BF4A1EF074FEC2
:103E8000032D00D80CE2062D00D866E20C2D00D8D8
:103E90006BE2182D00D8F8E0312D00D86DE2632DCB
:103EA00000D877E2C62D00D87FE2C6235B009D4292
:103EB00000D881E2B14B9D4200D889E2B04B9D42CF
:103EC00000D892E2AF4B9D4200D89BE2AE4B9D42A0
:103ED00000D8A7E2AD4B9D4200D8BEE2AC4B9D425C
:103EE00000D8C7E2AB4B9D4200D8D0E20F230F228F
:103EF0002025ED1AA940D84000250843FF2800D905
:103F0000CEE0002C00D1B1E0A34B9C4215D9A349CF
:103F1000A34B6018E3180021984201D2030010312E
:103F2000A04826189E4200D3C2E120219E4BE018F3
:103F3000B04200D344E33021C0E09C499C4B091BB4
:103F40009C4200D9AEE09B4B1B1B8B4200D3F8E098
:103F500099498C4200D9EFE110219848001B984202
:103F600005D2974B9C4200D9A4E10300202195483B
:103F7000001B984201D2030030219348844200D9AB
:103F8000F2E09248001B834201D90300402190488F
:103F9000844200D971E18F48001B984201D203008E
:103FA00050218D48844200D9ACE18C48001B9842D6
:103FB00001D2030060218A48844200D995E18948F2
:103FC000001B834201D9030070218748844200D935
:103FD000C2E08648001B834201D903008021844847
:103FE000844200D93CE18348001B834201D903008D
:103FF00090218148844200D991E18048001B83428E
:1040000001D90300A0217E48844200D960E17D48A7
:10401000001B834201D90300B0217B48844200D9B0
:1040200092E07A48001B984201D20300C0217848F0
:10403000844200D905E27748001B984201D2030070
:10404000D0217548844200D9F9E17448001B8342AD
:1040500001D90300E0217248844200D96DE0714823
:10406000041BA34200D9F0210A43D2B2102112202E
:10407000FEF75EFF2A0011211220FEF759FF1220E1
:10408000FFF76CF8684B1868F8BD182D00D071E187
:10409000664B9E4200D86DE10422090700090843DF
:1040A000C5B22EE73D4BE0183E4B814200D8F1E00F
:1040B000E3181021984201D9180010315C4BE61822
:1040C000864200D344E140215A4BE3189E4200D877
:1040D000FCE050215848201883424BD96021574BAF
:1040E000E618B04200D8D3E07021554BE018864264
:1040F00000D812E18021534BE318984200D8FFE02A
:1041000090215148201883422CD9A0214F4BE6180A
:10411000B04200D8AFE0B0214D4BE718BE4200D806
:1041200008E1C0214B4BE018874200D8DBE0D021EA
:10413000494BE31883420DD2E02148488446644449
:104140008FE70B00002108E741482018984200D370
:10415000C8E1C0210300F0E739482018834201D9A3
:10416000030080211800D1E731482018834201D98B
:10417000030040211800B2E780BA8C011903000047
:1041800032060000650C0000CB18000097310000DB
:104190002E6300005DC60000D3650C00F014F6FF2E
:1041A0002C9AF3FF1EBCF7FF63EAF8FFD4650C00FE
:1041B0000FEB090010EB0900E1430800E24308009F
:1041C0009C1507009D150700E9320600EA3206003B
:1041D00087F5040088F50400F0210400F1210400B3
:1041E000CD8A0300CE8A03007419030075190300F9
:1041F000C37A0200C47A0200F7100200F81002002D
:1042000066C5010067C50100B98C0100BA8C0100C8
:10421000613D0100623D01007B0801007C08010056
:10422000B2E20000B3E20000C8570410FFFFA7CBC2
:1042300016CDF9FF780AFBFF0FDEFBFF3275FCFF9E
:104240008BE6FCFF3C85FDFF08EFFDFF993AFEFF82
:104250004673FEFF9EC2FEFF84F7FEFF4D1DFFFF6B
:10426000C3482018834200D967E1C248201883421E
:1042700000D94AE7180006004EE7BF4820188342DD
:1042800000D932E1BD482018834200D926E7180042
:1042900006002AE7E018814200D8C0E020210DE79F
:1042A000032D57D1B64B9E4254D9012201231FE65C
:1042B0001E003BE6B34BE618B34BB04200D933E1E6
:1042C000E6184021B04201D806002021330001E762
:1042D000AE482718BB4200D9F0E0AD482718BB42D2
:1042E00000D83EE1C021380022E7AA4820188342C6
:1042F00000D90FE1A8482018834200D834E180217A
:104300000300FEE69D482618B34200D91FE1A148EC
:104310002618B34200D9E7E61E003000EBE69548C8
:104320002618B34200D9D3E098482618B34200D9E2
:10433000F1E61E003700F5E698496018834200D97F
:10434000B2E0904960183021834201D81800102152
:104350000600B9E600220023CAE5062DA5D1904B40
:104360009E42A2D902220223C2E50C2DFAD18D4B26
:104370009E42F7D903220323BAE5312D00D08BE604
:10438000894B9E4200D887E6C906400908430522AA
:10439000C5B2B6E5632DF7D1844B9E42F4D98906A8
:1043A000800908430622C5B2ABE5C62DF7D1804B84
:1043B0009E4200D979E5F2E79D4203D17D4B9E42B2
:1043C00000D977E54906C00908430722C5B298E538
:1043D0009D4204D1EA23DB059E4200D36EE5090627
:1043E000000A08430822C5B28BE59D4204D1EA23A6
:1043F0001B069E4200D365E5C905400A0843092211
:10440000C5B27EE59D4204D1D4231B069E4200D353
:104410005CE58905800A08430A22C5B271E50800F7
:1044200000214BE69D4204D1A8231B069E4200D3E7
:1044300050E54905C00A08430B22C5B261E51800E2
:1044400076E65D482018834259D85C48201883429C
:1044500000D809E60300E0216FE69D4204D1A023C5
:10446000DB059E4200D339E50905000B08430C2209
:10447000C5B246E59D4204D1A0231B069E4200D34F
:1044800030E5C904400B08430D22C5B239E59D4211
:1044900004D18023DB059E4200D327E58904800BED
:1044A00008430E22C5B22CE5364B2021E318984272
:1044B00000D84DE718001031060005E6344BB02156
:1044C000E318BB4200D30EE71F00103138002FE67F
:1044D0002E4BA021E318B34200D32BE71E0010316E
:1044E00037001FE61800030027E6244B5021E3188D
:1044F000984200D8CCE6180010310600F5E52F4BA5
:104500009C460023644484425B4159420F239943F3
:10451000E031A9E5204B7021E318984200D8EFE67E
:10452000180010310300ECE5E31830219E4200D85A
:10453000CCE61E0010313300CCE50E4B9021E31881
:10454000984200D897E6180010310600E4E5114BB8
:104550006021E3189E4200D8DFE61E0010313000D3
:10456000C9E51F003800E3E518000300C9E5C046AF
:104570003C85FDFF08EFFDFF780AFBFF0FDEFBFF28
:10458000FFFF741963EAF8FF16CDF9FF993AFEFFB1
:104590004673FEFF3275FCFF8BE6FCFF1EBCF7FF87
:1045A000FFFFE932FFFFD365FFFF4F97FFFF9F2E0D
:1045B000FFFF3F5DFFFF7FBA9EC2FEFF84F7FEFF55
:1045C00030007BE5F0B54746CE4680B51D009369C7
:1045D00091B09846136A96681400994617690DF0D1
:1045E000F7FE864208D2831BBB4205D3804503D227
:1045F0004346C01A484507D2174B1E68300011B019
:10460000C0BCB946B046F0BD3F2F00D93F273A00A5
:104610006846A9191FF068F900236A46D355009A25
:104620000E4B9A4210D001230D4A1668002B03D07E
:1046300001235B422360E1E729004A466846414482
:10464000FEF7A4FF2060D9E76A46064B92889A429B
:10465000E9D10023E8E7C046505704102F6170707D
:10466000C8570410732F0000F0B54746CE4680B5FA
:104670001D00936991B09846136A96681400994694
:1046800017690DF0A5FE864208D2831BBB4205D3F5
:10469000804503D24346C01A484507D2174B1E68CF
:1046A000300011B0C0BCB946B046F0BD3F2F00D9B4
:1046B0003F273A006846A9191FF016F900236A46F9
:1046C000D355009A0E4B9A4210D001230D4A16681A
:1046D000002B03D001235B422360E1E729004A4617
:1046E00068464144FEF77EFF2060D9E76A46064BE4
:1046F00092889A42E9D10023E8E7C0465057041057
:104700002F617070C8570410732F0000F0B591B07E
:10471000976814001D0016690DF05AFE874202D2F8
:10472000C01BB04204D2154B1D68280011B0F0BD6B
:104730003F2E14D832006846E9191FF0D5F800233F
:104740006A469355009A0E4B9A420FD001230D4AA8
:104750001568002B05D001235B422360E5E73F2667
:10476000E8E76846FEF7A0FF2060DEE76A46064BF2
:1047700092889A42EAD10023E9E7C04650570410D4
:104780002F617070C8570410732F0000F0B5C64633
:1047900000B584B0956814001E0017690DF018FE6E
:1047A000854202D2401BB84205D20B4B186804B0B8
:1047B00080BCB846F0BD00236A4608490848751910
:1047C0000293039300950197FEF732FF039B23604A
:1047D000044B1868EBE7C04650570410E947001037
:1047E000248B0210C8570410F8B51400070023F0FA
:1047F000DFFAA2686668531C1B180500B34203D990
:10480000E3680133E360F8BD2068390080182A00AE
:104810001FF06AF800212368A2685B199954A36805
:1048200001335B19A360EBE7F0B54646D6464F4629
:10483000C0B596681400310008391D0082B06F2998
:1048400048D8802397695B009F4243D8926A90467C
:104850009A423FD823699946236A9A460DF0B8FDDB
:10486000002F42D081454DD24B46C31ABB4249D39B
:104870004346002B24D0824544D25346C01A4045BB
:1048800040D34B46EA18234BF6B299460123310038
:10489000009348463B0021F047FF00281ADB002325
:1048A0002A000093310043464846524421F0B2FFAB
:1048B00000282ADA184B186801235B4223600EE0B7
:1048C0002A00009313483B004A44F1B221F02CFF28
:1048D00000281ADA01235B4223600F4B186802B0EC
:1048E000E0BCBA46B146A846F0BD4346002B0CD00A
:1048F000824507D25346C01A804503D8054BF6B20D
:104900009946CCE7054B1868E9E700232360024B82
:104910001868E4E7001B0020C85704105057041023
:10492000F0B5C6461D0080239669140000B55B01F2
:104930009E4207D901235B421360134B186880BC69
:10494000B846F0BD1369976898460DF041FD87425F
:1049500016D2C31BB34213D3804511D24346C01AAB
:10496000B0420DD3EA1809483300E91923F014FCCA
:10497000361A731E9E41044B764218682660DEE7A5
:10498000034B1868DBE7C046C8570410000004401A
:104990005057041010B514001BF046FC002908D035
:1049A000FA22002392001EF0DFF8044B2060186802
:1049B00010BDFA2189001EF099F8F6E7C8570410D7
:1049C00010B582B06B46D81D1400FCF719F800280A
:1049D00012D10C4B1B78002B05D1FF2323600A4B0F
:1049E000186802B010BD094B1B68002B01D00122D2
:1049F0005A75074B1868F4E76B46DB792360024B66
:104A00001868EEE73C9D0120C8570410043C0020C4
:104A100038570410F0B5CE464746002380B5234DE5
:104A200083B02B706B46177A991D91461E20012288
:104A30000F70FEF7E5F81E4BC82498461D4E11E096
:104A40002B78002B04D043461B789F421BD02A7042
:104A500001201BF099FA6B46013CD81DFBF7D0FFF3
:104A6000002C10D03378DAB2002BE9D0124B1B683F
:104A7000002B01D001225A75104B186803B0C0BC3E
:104A8000B946B046F0BD0E4A2B781068002B09D00D
:104A90000C4B1B78002B05D10B4B1B78DBB24A4625
:104AA0001360EBE701235B42F9E7C046249D012038
:104AB000259D01203C9D0120043C00203857041016
:104AC000C8570410269D0120279D012070B513684A
:104AD000134A1C0082B0934200D91400002B1BD053
:104AE000104E01E0002C17D02500322C00D93225C1
:104AF00028001BF049FA6B46D81DFBF781FF33787D
:104B0000641B002BEED0084B1B68002B01D0012248
:104B10005A75064B186801E0054B186802B070BD65
:104B2000102700003C9D0120043C00203857041051
:104B3000C8570410F0B54546DE4657464E46E0B528
:104B40000B490C4D85B000910B4B29000B4A04001A
:104B500017F076FD002815D0094B1B68984211D03C
:104B600005B0F0BCBB46B246A946A046F0BDC04663
:104B7000013A0010608D0210448D0210508D021019
:104B800094570410D14BD24F009329003B002000D2
:104B9000D04A17F055FD002803D0CF4B1B68984230
:104BA000DED1CE4BCE4E0093290033002000CD4AFB
:104BB00017F046FD002803D0C74B1B689842CFD1A1
:104BC000C94B29009B46C94B20000093C84A5B464D
:104BD00017F036FD002803D0BF4B1B689842BFD1A9
:104BE000C44B2900009320003B00C34A17F028FD66
:104BF000002803D0B84B1B689842B1D1BF4B2900A5
:104C0000009320005B46BE4A17F01AFD002803D02F
:104C1000B14B1B689842A3D1BA4B290000932000E6
:104C20003B00B94A17F00CFD002803D0AA4B1B68C3
:104C3000984295D1B54B29009846B54B200000937A
:104C4000B44A434617F0FCFC002804D0A24B1B6872
:104C5000984200D084E7B04B2900009320005B46C7
:104C6000AE4A17F0EDFC002804D09B4B1B6898421D
:104C700000D075E7AA4B29009946AA4B2000009363
:104C8000A94A4B4617F0DCFC002804D0924B1B6865
:104C9000984200D064E7A54B2900009320004B46C2
:104CA000A34A17F0CDFC002804D08B4B1B68984218
:104CB00000D055E79F4B29000093200043469E4AB1
:104CC00017F0BEFC002804D0834B1B68984200D02C
:104CD00046E79A4B2900009320004B46984A17F06C
:104CE000AFFC002804D07C4B1B68984200D037E70B
:104CF000944B200019000293934B944A00930B00AD
:104D0000290017F09DFC002804D0734B1B689842C3
:104D100000D025E78E4B29009A468E4B2000009349
:104D20008D4A534617F08CFC002804D06A4B1B6850
:104D3000984200D014E7894B2900009320005B467D
:104D4000874A17F07DFC002804D0634B1B6898420B
:104D500000D005E7834B2900009320004346824A98
:104D600017F06EFC002804D05B4B1B68984200D003
:104D7000F6E67E4B2900009320004B467C4A17F054
:104D80005FFC002804D0544B1B68984200D0E7E633
:104D9000784B290000932000774A029B17F050FCC3
:104DA000002804D04C4B1B68984200D0D8E6734BC7
:104DB000200019001F00724B724A00930B0029005B
:104DC00017F03EFC002804D0434B1B68984200D0EB
:104DD000C6E66D4B2900009320006C4A029B17F039
:104DE0002FFC002804D03C4B1B68984200D0B7E64B
:104DF000674B200019000393664B674A00930B0032
:104E0000290017F01DFC002804D0334B1B68984282
:104E100000D0A5E6614B290000932000604A039B67
:104E200017F00EFC002804D02B4B1B68984200D0D2
:104E300096E65C4B29000093200053465A4A17F02F
:104E4000FFFB002804D0244B1B68984200D087E663
:104E5000564B2900009320005346554A17F0F0FBAB
:104E6000002804D01C4B1B68984200D078E65149BA
:104E700020000091504B2900504A17F0E1FB002818
:104E800004D0154B1B68984200D069E64C4B2900B2
:104E9000009320003B004B4A17F0D2FB002804D0BF
:104EA0000D4B1B68984200D05AE6474B29000093EF
:104EB00020003B00454A17F0C3FB002800D187E0E3
:104EC000054B1B68984200D04AE681E0393A001051
:104ED000648D0210708D0210945704106D3A00100A
:104EE000808D0210848D0210908D0210953C001070
:104EF000988D0210853A0010A48D0210153B001009
:104F0000B88D0210493B0010C88D0210D88D0210D8
:104F10007D3B0010E08D02109D3B0010F48D0210CF
:104F2000048E0210C1490010088E0210495300106F
:104F3000188E0210E53C0010288E02102D3D001046
:104F40003C8E0210508E02105D3D0010588E0210F3
:104F5000688E0210F53D0010708E0210453E001064
:104F6000808E0210093D0010988E0210453D001001
:104F7000AC8E0210A93D0010C08E0210D08E02101F
:104F800099370010D88E0210C1370010E88E021039
:104F9000F88E0210C5450010008F021069460010FF
:104FA000108F02100D4700101C8F02108D4700104B
:104FB0002C8F0210053C0010388F0210408F021019
:104FC000713800104C8F0210ED3700105C8F02100A
:104FD000974B2900009320004B46964A17F030FB70
:104FE000002804D0944B1B68984200D0B8E5934B3E
:104FF0002900009320004B46914A17F021FB00281E
:1050000004D08D4B1B68984200D0A9E58D4B290038
:105010000093200053468C4A17F012FB002804D05E
:10502000854B1B68984200D09AE5884B2900009375
:1050300020003B00864A17F003FB002804D07E4B7B
:105040001B68984200D08BE5824B2900009320001A
:105050005B46814A17F0F4FA002804D0764B1B68AF
:10506000984200D07CE57D4B2900009320003B0056
:105070007B4A17F0E5FA002804D06F4B1B68984272
:1050800000D06DE5774920000091774B2900774AE1
:1050900017F0D6FA002804D0674B1B68984200D05E
:1050A0005EE5734920000091724B2900724A17F0A7
:1050B000C7FA002804D0604B1B68984200D04FE527
:1050C0006E4B29000093200053466D4A17F0B8FA42
:1050D000002804D0584B1B68984200D040E5694B2B
:1050E0002900009320005346674A17F0A9FA0028C8
:1050F00004D0514B1B68984200D031E5634B290026
:10510000009320003300624A17F09AFA002804D076
:10511000494B1B68984200D022E55E4B2900009362
:10512000200053465C4A17F08BFA002804D0424B0B
:105130001B68984200D013E5584B290000932000CB
:105140003300574A17F07CFA002804D03A4B1B680A
:10515000984200D004E5534B2900009320005346A9
:10516000514A17F06DFA002804D0334B1B6898425F
:1051700000D0F5E44D4B2900009320004C4A029BDF
:1051800017F05EFA002804D02B4B1B68984200D021
:10519000E6E4484B2900009320005346464A17F0A6
:1051A0004FFA002804D0244B1B68984200D0D7E463
:1051B000424B2900009320004346414A17F040FA31
:1051C000002804D01C4B1B68984200D0C8E43D4B1B
:1051D00029000093200033003B4A17F031FA0028E1
:1051E00004D0154B1B68984200D0B9E4374B290016
:1051F000009320004B46364A17F022FA002804D0CC
:105200000D4B1B68984200D0AAE4324B2900009352
:1052100020004B46304A17F013FA002804D0064B02
:105220001B68984200D09BE42C4B186898E4C04659
:10523000FD3700106C8F02109457041011380010C5
:10524000808F0210393C0010948F0210154A001014
:10525000A48F0210613C0010B48F0210D1380010EE
:10526000C08F021029480010CC8F0210D88F021076
:1052700021490010EC8F0210F48F02100953001026
:1052800008900210195300101C90021025380010CD
:10529000309002102953001044900210FD5200106B
:1052A00058900210395300106C900210E152001017
:1052B00080900210ED52001090900210CD4A001024
:1052C000A090021031380010B09002104D3800103C
:1052D000BC90021095490010D0900210C8570410DD
:1052E000014B18687047C046C857041001235B4241
:1052F0001360014B18687047C8570410014B1868B9
:105300007047C046C857041001235B421360014B2D
:1053100018687047C857041001235B421360014BA3
:1053200018687047C857041001235B421360014B93
:1053300018687047C857041001235B421360014B83
:1053400018687047C857041070B51600114D124CFC
:1053500082B00BE029782368002914D1002B02D0F9
:10536000597D002911D10A201AF00EFE6B46D81D76
:10537000FBF746FB0028EDD06B46DB793360074B2B
:10538000186802B070BD002B01D001225A75044B81
:105390001868F6E73C9D0120043C0020C857041023
:1053A00038570410F0B518220E0083B00021040015
:1053B0001EF094FA80225E4D300029001202FEF7A2
:1053C00011F9072800DC9AE0E56020610CF0FEF995
:1053D0002060002800D19AE08021002249010CF0D1
:1053E0006FFA051E606000D197E021002369E26832
:1053F0002068083116F0B6FE051E5CD1A168606811
:105400000CF040FE002866D1A5684A494A4F009139
:1054100028003900494B4A4A17F012F9011E07D0FB
:10542000484B1B68984203D047481EF085FC12E0A9
:10543000464928000091464B3900464A17F000F9CA
:10544000002825D03F4B1B68984221D03E4B0100DD
:1054500018001EF071FC802300255B00A3826068A9
:105460003D4B1D60002802D00CF0ACFA65600025B1
:105470002068A560002802D00CF0F2F92560122007
:10548000FDF752FE0520FDF74FFE0620404210E0DA
:105490002800FFF74FFB0028D8D1304B320018709E
:1054A0000123A3822C4B21692D481C601EF044FC73
:1054B000002003B0F0BD29002A481EF03DFC6068C2
:1054C0000CF080FA20680CF0CBF900230420636014
:1054D00023604042EDE7244B010018001EF02CFC35
:1054E000A06817F027F960680CF06CFA20680CF0DF
:1054F000B7F90520A560656025604042D9E71B4BE0
:10550000010018001EF018FC01204042D1E71848A5
:105510001EF0CCFA02204042CBE716481EF0C6FA35
:1055200020680CF09DF9032025604042C1E7C04689
:10553000081D012061380010608D0210808D02105E
:10554000E090021094570410789102107139001005
:10555000648D0210F4900210043C00203C9D012058
:105560008C9102105091021064910210049102106B
:105570001C9102103491021070B5037D040088B0B4
:10558000002B22D0416800291FD068461B4A0CF02E
:10559000BBFE002806D06846194A61680CF0B4FECC
:1055A00000280DD100980CF0F5FA051E06D0154B19
:1055B00000201B68AB420BD108B070BD0020FBE798
:1055C000114B010018001EF0B7FB01204042F3E729
:1055D00001AE310060680CF0DFFE29000B481EF0C0
:1055E000ABFB0799002902D009481EF0A5FB0A2051
:1055F0001EF012FA02204042DEE7C046649002101C
:10560000AC91021038570410B4910210D4910210DA
:10561000E491021070B5041E19D0802300255B00B0
:1056200083820B4B40681D60002802D00CF0CAF941
:10563000656000252068A560002802D00CF010F9F4
:1056400025601220FDF770FD0520FDF76DFD70BD92
:10565000043C002010B543689878FDF765FD10BD47
:10566000F0B5DE464E4657464546E0B57D4C050052
:10567000A5441EAA11007C4B51CB51C1186804AC43
:1056800008609B8839AE8B80784B049263606A789F
:105690009846774B1201D3583621764A30001DF0D8
:1056A00041F96B6874499A46AB68A66050469B46C0
:1056B0001DF01CFA8D235B006B4407006E495846B1
:1056C00099461DF013FA08006C491DF00FFA6A495B
:1056D000029058461DF00AFA6749019050461DF0A5
:1056E00005FA080065491DF001FA654E3B003200DD
:1056F0003621009048461DF015F94B46FA21E8681E
:10570000E36089001DF0F2F954AE03003621300049
:105710005C4A1DF007F94346266163611AF084FD77
:10572000002900D170E0FA22002392001DF01CFA3B
:10573000D2235B00EE580433EB5AFA210133994629
:105740006FAB9A460A23861B8900300001931DF037
:10575000CDF94D4F4B463A000090362150461DF092
:10576000E1F853463701A361484BBF1B7F009F42BE
:105770004FD910AB994642204A46454B232113800E
:1057800068441E221EF0AAF8F9262023002249466A
:1057900076006E44CA5430004B4636213D4A1DF017
:1057A000C1F8434623628A23E6615B00EE5633006C
:1057B00080334ED08C235B00EB582F49180098465D
:1057C0001DF094F90800FA2189001DF08FF92A498B
:1057D000019040461DF08AF92F4D304F6D440090E6
:1057E00033003A00362128001DF09CF80A212000E1
:1057F0006562FDF729FBC1239B009D44F0BCBB46BD
:10580000B246A946A046F0BDFA2189001DF06EF906
:105810008EE7380019491DF069F910AB99464A46E0
:105820001B4B060013801E4B9F4209D800261E22E8
:10583000921B023630002E2148441EF04FF8A3E799
:1058400002004220232168441EF048F81E2EEED1AB
:105850009AE7114D0B226D44280012491EF044F8BE
:10586000C4E7C046FCFCFFFFEC9102100C8802105C
:10587000D05204100092021040420F001027000086
:10588000109202103092021040920210EFBA0400FF
:105890002020000000A402105E02000060920210AE
:1058A0000F27000080920210F0B5D6464F464646BC
:1058B000DD23C0B55B00314CC35C0500A544002B63
:1058C00057D02F4B0293D8235B00EB582D4E180076
:1058D0002D4903969A461DF009F928AB80462A49BE
:1058E000504699461DF002F90800FA2189001DF082
:1058F000FDF8264F43463A003621009048461DF0F9
:1059000011F8D6214B466944D62788467F00049378
:10591000EB5B36211E4A40461DF004F84346FA214F
:105920000593EA5B890093009B189A009B18580125
:105930001DF0DCF843AF030036213800154A1CF097
:10594000F1FFDD2306975B000796EB5C02AC002BB2
:1059500011D10821104BE361104B2000A361FDF72A
:1059600073FA94239B009D44E0BCBA46B146A84616
:10597000F0BD0B4BA6E707210A4BEEE7B0FDFFFF9A
:105980008C9202100C88021040420F00F09202101C
:10599000089302102093021034930210D092021048
:1059A0009C920210B0920210F0B54E46DE46574669
:1059B00045468146E0B5804C4278804BA5441201B3
:1059C000D35836217E4A20A81CF0ACFFD02420AB4F
:1059D00010934B467B4E640011961B5D002B00D14B
:1059E000B4E03100012B00D077493BAC774A0091FD
:1059F000200036211CF096FF1E234A46129413966F
:105A0000FF33D35CD0211A009A461D004B46490053
:105A1000585C0832824200DD8CE008231100984671
:105A20000B9314AB9B46CBB20593694B56AF0693D1
:105A3000534607934346B8460DAC089209930A961D
:105A40009223EF004F445B00FB5600269A464A33F0
:105A500012DB50465F4B4B30C0000836984206DCE4
:105A6000073E4A2803DD4B211DF018F806003200DE
:105A7000232120001DF032FF00234A46A355AB33FB
:105A8000FF33D65C5449761B731E9E411D2376421C
:105A90009E430433FF33FF58534638000293039468
:105AA0001DF024F80800FA2189001DF01FF84A496A
:105AB000019038001DF01AF83E363300069A009027
:105AC000362140461CF02EFF5B46424604C39B46EF
:105AD00036239C460135059BEDB2E044AB42AFD185
